{
  "contractName": "DirtyWorld",
  "abi": [
    {
      "inputs": [
        {
          "internalType": "string",
          "name": "theBaseURI",
          "type": "string"
        },
        {
          "internalType": "address",
          "name": "owner",
          "type": "address"
        },
        {
          "internalType": "uint256",
          "name": "numToken",
          "type": "uint256"
        }
      ],
      "stateMutability": "nonpayable",
      "type": "constructor"
    },
    {
      "anonymous": false,
      "inputs": [
        {
          "indexed": true,
          "internalType": "address",
          "name": "owner",
          "type": "address"
        },
        {
          "indexed": true,
          "internalType": "address",
          "name": "approved",
          "type": "address"
        },
        {
          "indexed": true,
          "internalType": "uint256",
          "name": "tokenId",
          "type": "uint256"
        }
      ],
      "name": "Approval",
      "type": "event"
    },
    {
      "anonymous": false,
      "inputs": [
        {
          "indexed": true,
          "internalType": "address",
          "name": "owner",
          "type": "address"
        },
        {
          "indexed": true,
          "internalType": "address",
          "name": "operator",
          "type": "address"
        },
        {
          "indexed": false,
          "internalType": "bool",
          "name": "approved",
          "type": "bool"
        }
      ],
      "name": "ApprovalForAll",
      "type": "event"
    },
    {
      "anonymous": false,
      "inputs": [
        {
          "indexed": true,
          "internalType": "address",
          "name": "previousOwner",
          "type": "address"
        },
        {
          "indexed": true,
          "internalType": "address",
          "name": "newOwner",
          "type": "address"
        }
      ],
      "name": "OwnershipTransferred",
      "type": "event"
    },
    {
      "anonymous": false,
      "inputs": [
        {
          "indexed": true,
          "internalType": "address",
          "name": "from",
          "type": "address"
        },
        {
          "indexed": true,
          "internalType": "address",
          "name": "to",
          "type": "address"
        },
        {
          "indexed": true,
          "internalType": "uint256",
          "name": "tokenId",
          "type": "uint256"
        }
      ],
      "name": "Transfer",
      "type": "event"
    },
    {
      "inputs": [
        {
          "internalType": "address",
          "name": "to",
          "type": "address"
        },
        {
          "internalType": "uint256",
          "name": "tokenId",
          "type": "uint256"
        }
      ],
      "name": "approve",
      "outputs": [],
      "stateMutability": "nonpayable",
      "type": "function"
    },
    {
      "inputs": [],
      "name": "availableToken",
      "outputs": [
        {
          "internalType": "uint256",
          "name": "",
          "type": "uint256"
        }
      ],
      "stateMutability": "view",
      "type": "function"
    },
    {
      "inputs": [
        {
          "internalType": "address",
          "name": "owner",
          "type": "address"
        }
      ],
      "name": "balanceOf",
      "outputs": [
        {
          "internalType": "uint256",
          "name": "",
          "type": "uint256"
        }
      ],
      "stateMutability": "view",
      "type": "function"
    },
    {
      "inputs": [],
      "name": "baseExtension",
      "outputs": [
        {
          "internalType": "string",
          "name": "",
          "type": "string"
        }
      ],
      "stateMutability": "view",
      "type": "function"
    },
    {
      "inputs": [
        {
          "internalType": "uint256",
          "name": "tokenId",
          "type": "uint256"
        }
      ],
      "name": "getApproved",
      "outputs": [
        {
          "internalType": "address",
          "name": "",
          "type": "address"
        }
      ],
      "stateMutability": "view",
      "type": "function"
    },
    {
      "inputs": [
        {
          "internalType": "address",
          "name": "owner",
          "type": "address"
        },
        {
          "internalType": "address",
          "name": "operator",
          "type": "address"
        }
      ],
      "name": "isApprovedForAll",
      "outputs": [
        {
          "internalType": "bool",
          "name": "",
          "type": "bool"
        }
      ],
      "stateMutability": "view",
      "type": "function"
    },
    {
      "inputs": [],
      "name": "maxPurchaseSize",
      "outputs": [
        {
          "internalType": "uint256",
          "name": "",
          "type": "uint256"
        }
      ],
      "stateMutability": "view",
      "type": "function"
    },
    {
      "inputs": [],
      "name": "name",
      "outputs": [
        {
          "internalType": "string",
          "name": "",
          "type": "string"
        }
      ],
      "stateMutability": "view",
      "type": "function"
    },
    {
      "inputs": [],
      "name": "owner",
      "outputs": [
        {
          "internalType": "address",
          "name": "",
          "type": "address"
        }
      ],
      "stateMutability": "view",
      "type": "function"
    },
    {
      "inputs": [
        {
          "internalType": "uint256",
          "name": "tokenId",
          "type": "uint256"
        }
      ],
      "name": "ownerOf",
      "outputs": [
        {
          "internalType": "address",
          "name": "",
          "type": "address"
        }
      ],
      "stateMutability": "view",
      "type": "function"
    },
    {
      "inputs": [],
      "name": "price",
      "outputs": [
        {
          "internalType": "uint256",
          "name": "",
          "type": "uint256"
        }
      ],
      "stateMutability": "view",
      "type": "function"
    },
    {
      "inputs": [],
      "name": "renounceOwnership",
      "outputs": [],
      "stateMutability": "nonpayable",
      "type": "function"
    },
    {
      "inputs": [
        {
          "internalType": "address",
          "name": "from",
          "type": "address"
        },
        {
          "internalType": "address",
          "name": "to",
          "type": "address"
        },
        {
          "internalType": "uint256",
          "name": "tokenId",
          "type": "uint256"
        }
      ],
      "name": "safeTransferFrom",
      "outputs": [],
      "stateMutability": "nonpayable",
      "type": "function"
    },
    {
      "inputs": [
        {
          "internalType": "address",
          "name": "from",
          "type": "address"
        },
        {
          "internalType": "address",
          "name": "to",
          "type": "address"
        },
        {
          "internalType": "uint256",
          "name": "tokenId",
          "type": "uint256"
        },
        {
          "internalType": "bytes",
          "name": "_data",
          "type": "bytes"
        }
      ],
      "name": "safeTransferFrom",
      "outputs": [],
      "stateMutability": "nonpayable",
      "type": "function"
    },
    {
      "inputs": [
        {
          "internalType": "address",
          "name": "operator",
          "type": "address"
        },
        {
          "internalType": "bool",
          "name": "approved",
          "type": "bool"
        }
      ],
      "name": "setApprovalForAll",
      "outputs": [],
      "stateMutability": "nonpayable",
      "type": "function"
    },
    {
      "inputs": [
        {
          "internalType": "bytes4",
          "name": "interfaceId",
          "type": "bytes4"
        }
      ],
      "name": "supportsInterface",
      "outputs": [
        {
          "internalType": "bool",
          "name": "",
          "type": "bool"
        }
      ],
      "stateMutability": "view",
      "type": "function"
    },
    {
      "inputs": [],
      "name": "symbol",
      "outputs": [
        {
          "internalType": "string",
          "name": "",
          "type": "string"
        }
      ],
      "stateMutability": "view",
      "type": "function"
    },
    {
      "inputs": [
        {
          "internalType": "uint256",
          "name": "index",
          "type": "uint256"
        }
      ],
      "name": "tokenByIndex",
      "outputs": [
        {
          "internalType": "uint256",
          "name": "",
          "type": "uint256"
        }
      ],
      "stateMutability": "view",
      "type": "function"
    },
    {
      "inputs": [
        {
          "internalType": "address",
          "name": "owner",
          "type": "address"
        },
        {
          "internalType": "uint256",
          "name": "index",
          "type": "uint256"
        }
      ],
      "name": "tokenOfOwnerByIndex",
      "outputs": [
        {
          "internalType": "uint256",
          "name": "",
          "type": "uint256"
        }
      ],
      "stateMutability": "view",
      "type": "function"
    },
    {
      "inputs": [],
      "name": "totalSupply",
      "outputs": [
        {
          "internalType": "uint256",
          "name": "",
          "type": "uint256"
        }
      ],
      "stateMutability": "view",
      "type": "function"
    },
    {
      "inputs": [
        {
          "internalType": "address",
          "name": "from",
          "type": "address"
        },
        {
          "internalType": "address",
          "name": "to",
          "type": "address"
        },
        {
          "internalType": "uint256",
          "name": "tokenId",
          "type": "uint256"
        }
      ],
      "name": "transferFrom",
      "outputs": [],
      "stateMutability": "nonpayable",
      "type": "function"
    },
    {
      "inputs": [
        {
          "internalType": "address",
          "name": "newOwner",
          "type": "address"
        }
      ],
      "name": "transferOwnership",
      "outputs": [],
      "stateMutability": "nonpayable",
      "type": "function"
    },
    {
      "inputs": [
        {
          "internalType": "uint256",
          "name": "_count",
          "type": "uint256"
        }
      ],
      "name": "mint",
      "outputs": [],
      "stateMutability": "payable",
      "type": "function"
    },
    {
      "inputs": [
        {
          "internalType": "string",
          "name": "baseURI",
          "type": "string"
        }
      ],
      "name": "setBaseURI",
      "outputs": [],
      "stateMutability": "nonpayable",
      "type": "function"
    },
    {
      "inputs": [],
      "name": "contractURI",
      "outputs": [
        {
          "internalType": "string",
          "name": "",
          "type": "string"
        }
      ],
      "stateMutability": "pure",
      "type": "function"
    },
    {
      "inputs": [
        {
          "internalType": "uint256",
          "name": "tokenId",
          "type": "uint256"
        }
      ],
      "name": "tokenURI",
      "outputs": [
        {
          "internalType": "string",
          "name": "",
          "type": "string"
        }
      ],
      "stateMutability": "view",
      "type": "function"
    },
    {
      "inputs": [
        {
          "internalType": "address",
          "name": "_owner",
          "type": "address"
        }
      ],
      "name": "walletOfOwner",
      "outputs": [
        {
          "internalType": "uint256[]",
          "name": "",
          "type": "uint256[]"
        }
      ],
      "stateMutability": "view",
      "type": "function"
    }
  ],
  "bytecode": "0x6080604052612b67600b556040518060400160405280600581526020017f2e6a736f6e000000000000000000000000000000000000000000000000000000815250600c90805190602001906200005792919062000350565b503480156200006557600080fd5b506040516200463e3803806200463e83398181016040528101906200008b9190620004a0565b6040518060400160405280600a81526020017f4469727479576f726c64000000000000000000000000000000000000000000008152506040518060400160405280600a81526020017f4449525459574f524c440000000000000000000000000000000000000000000081525081600090805190602001906200010f92919062000350565b5080600190805190602001906200012892919062000350565b5050506200014b6200013f620001ad60201b60201c565b620001b560201b60201c565b6200015c836200027b60201b60201c565b81600e60006101000a81548173ffffffffffffffffffffffffffffffffffffffff021916908373ffffffffffffffffffffffffffffffffffffffff16021790555080600b8190555050505062000727565b600033905090565b6000600a60009054906101000a900473ffffffffffffffffffffffffffffffffffffffff16905081600a60006101000a81548173ffffffffffffffffffffffffffffffffffffffff021916908373ffffffffffffffffffffffffffffffffffffffff1602179055508173ffffffffffffffffffffffffffffffffffffffff168173ffffffffffffffffffffffffffffffffffffffff167f8be0079c531659141344cd1fd0a4f28419497f9722a3daafe3b4186f6b6457e060405160405180910390a35050565b6200028b620001ad60201b60201c565b73ffffffffffffffffffffffffffffffffffffffff16620002b16200032660201b60201c565b73ffffffffffffffffffffffffffffffffffffffff16146200030a576040517f08c379a0000000000000000000000000000000000000000000000000000000008152600401620003019062000551565b60405180910390fd5b80600d90805190602001906200032292919062000350565b5050565b6000600a60009054906101000a900473ffffffffffffffffffffffffffffffffffffffff16905090565b8280546200035e906200065f565b90600052602060002090601f016020900481019282620003825760008555620003ce565b82601f106200039d57805160ff1916838001178555620003ce565b82800160010185558215620003ce579182015b82811115620003cd578251825591602001919060010190620003b0565b5b509050620003dd9190620003e1565b5090565b5b80821115620003fc576000816000905550600101620003e2565b5090565b6000620004176200041184620005a7565b62000573565b9050828152602081018484840111156200043057600080fd5b6200043d84828562000629565b509392505050565b6000815190506200045681620006f3565b92915050565b600082601f8301126200046e57600080fd5b81516200048084826020860162000400565b91505092915050565b6000815190506200049a816200070d565b92915050565b600080600060608486031215620004b657600080fd5b600084015167ffffffffffffffff811115620004d157600080fd5b620004df868287016200045c565b9350506020620004f28682870162000445565b9250506040620005058682870162000489565b9150509250925092565b60006200051e602083620005da565b91507f4f776e61626c653a2063616c6c6572206973206e6f7420746865206f776e65726000830152602082019050919050565b600060208201905081810360008301526200056c816200050f565b9050919050565b6000604051905081810181811067ffffffffffffffff821117156200059d576200059c620006c4565b5b8060405250919050565b600067ffffffffffffffff821115620005c557620005c4620006c4565b5b601f19601f8301169050602081019050919050565b600082825260208201905092915050565b6000620005f882620005ff565b9050919050565b600073ffffffffffffffffffffffffffffffffffffffff82169050919050565b6000819050919050565b60005b83811015620006495780820151818401526020810190506200062c565b8381111562000659576000848401525b50505050565b600060028204905060018216806200067857607f821691505b602082108114156200068f576200068e62000695565b5b50919050565b7f4e487b7100000000000000000000000000000000000000000000000000000000600052602260045260246000fd5b7f4e487b7100000000000000000000000000000000000000000000000000000000600052604160045260246000fd5b620006fe81620005eb565b81146200070a57600080fd5b50565b62000718816200061f565b81146200072457600080fd5b50565b613f0780620007376000396000f3fe60806040526004361061019c5760003560e01c80636352211e116100ec578063a22cb4651161008a578063c87b56dd11610064578063c87b56dd146105cd578063e8a3d4851461060a578063e985e9c514610635578063f2fde38b146106725761019c565b8063a22cb46514610550578063b88d4fde14610579578063c6682862146105a25761019c565b80638da5cb5b116100c65780638da5cb5b146104b357806395d89b41146104de578063a035b1fe14610509578063a0712d68146105345761019c565b80636352211e1461042257806370a082311461045f578063715018a61461049c5761019c565b806323b872dd11610159578063438b630011610133578063438b6300146103545780634f6ccce71461039157806355f804b3146103ce578063564b28a0146103f75761019c565b806323b872dd146102c55780632f745c59146102ee57806342842e0e1461032b5761019c565b806301ffc9a7146101a157806306fdde03146101de578063076736a214610209578063081812fc14610234578063095ea7b31461027157806318160ddd1461029a575b600080fd5b3480156101ad57600080fd5b506101c860048036038101906101c39190612b8c565b61069b565b6040516101d591906136aa565b60405180910390f35b3480156101ea57600080fd5b506101f3610715565b60405161020091906136c5565b60405180910390f35b34801561021557600080fd5b5061021e6107a7565b60405161022b91906139c7565b60405180910390f35b34801561024057600080fd5b5061025b60048036038101906102569190612c1f565b6107ac565b6040516102689190613621565b60405180910390f35b34801561027d57600080fd5b5061029860048036038101906102939190612b50565b610831565b005b3480156102a657600080fd5b506102af610949565b6040516102bc91906139c7565b60405180910390f35b3480156102d157600080fd5b506102ec60048036038101906102e79190612a4a565b610956565b005b3480156102fa57600080fd5b5061031560048036038101906103109190612b50565b6109b6565b60405161032291906139c7565b60405180910390f35b34801561033757600080fd5b50610352600480360381019061034d9190612a4a565b610a5b565b005b34801561036057600080fd5b5061037b600480360381019061037691906129e5565b610a7b565b6040516103889190613688565b60405180910390f35b34801561039d57600080fd5b506103b860048036038101906103b39190612c1f565b610b75565b6040516103c591906139c7565b60405180910390f35b3480156103da57600080fd5b506103f560048036038101906103f09190612bde565b610c0c565b005b34801561040357600080fd5b5061040c610ca2565b60405161041991906139c7565b60405180910390f35b34801561042e57600080fd5b5061044960048036038101906104449190612c1f565b610ca8565b6040516104569190613621565b60405180910390f35b34801561046b57600080fd5b50610486600480360381019061048191906129e5565b610d5a565b60405161049391906139c7565b60405180910390f35b3480156104a857600080fd5b506104b1610e12565b005b3480156104bf57600080fd5b506104c8610e9a565b6040516104d59190613621565b60405180910390f35b3480156104ea57600080fd5b506104f3610ec4565b60405161050091906136c5565b60405180910390f35b34801561051557600080fd5b5061051e610f56565b60405161052b91906139c7565b60405180910390f35b61054e60048036038101906105499190612c1f565b610f62565b005b34801561055c57600080fd5b5061057760048036038101906105729190612b14565b61118a565b005b34801561058557600080fd5b506105a0600480360381019061059b9190612a99565b61130b565b005b3480156105ae57600080fd5b506105b761136d565b6040516105c491906136c5565b60405180910390f35b3480156105d957600080fd5b506105f460048036038101906105ef9190612c1f565b6113fb565b60405161060191906136c5565b60405180910390f35b34801561061657600080fd5b5061061f6114b1565b60405161062c91906136c5565b60405180910390f35b34801561064157600080fd5b5061065c60048036038101906106579190612a0e565b6114d1565b60405161066991906136aa565b60405180910390f35b34801561067e57600080fd5b50610699600480360381019061069491906129e5565b611565565b005b60007f780e9d63000000000000000000000000000000000000000000000000000000007bffffffffffffffffffffffffffffffffffffffffffffffffffffffff1916827bffffffffffffffffffffffffffffffffffffffffffffffffffffffff1916148061070e575061070d8261165d565b5b9050919050565b60606000805461072490613ccf565b80601f016020809104026020016040519081016040528092919081815260200182805461075090613ccf565b801561079d5780601f106107725761010080835404028352916020019161079d565b820191906000526020600020905b81548152906001019060200180831161078057829003601f168201915b5050505050905090565b600581565b60006107b78261173f565b6107f6576040517f08c379a00000000000000000000000000000000000000000000000000000000081526004016107ed90613887565b60405180910390fd5b6004600083815260200190815260200160002060009054906101000a900473ffffffffffffffffffffffffffffffffffffffff169050919050565b600061083c82610ca8565b90508073ffffffffffffffffffffffffffffffffffffffff168373ffffffffffffffffffffffffffffffffffffffff1614156108ad576040517f08c379a00000000000000000000000000000000000000000000000000000000081526004016108a490613967565b60405180910390fd5b8073ffffffffffffffffffffffffffffffffffffffff166108cc6117ab565b73ffffffffffffffffffffffffffffffffffffffff1614806108fb57506108fa816108f56117ab565b6114d1565b5b61093a576040517f08c379a000000000000000000000000000000000000000000000000000000000815260040161093190613807565b60405180910390fd5b61094483836117b3565b505050565b6000600880549050905090565b6109676109616117ab565b8261186c565b6109a6576040517f08c379a000000000000000000000000000000000000000000000000000000000815260040161099d90613987565b60405180910390fd5b6109b183838361194a565b505050565b60006109c183610d5a565b8210610a02576040517f08c379a00000000000000000000000000000000000000000000000000000000081526004016109f990613707565b60405180910390fd5b600660008473ffffffffffffffffffffffffffffffffffffffff1673ffffffffffffffffffffffffffffffffffffffff168152602001908152602001600020600083815260200190815260200160002054905092915050565b610a768383836040518060200160405280600081525061130b565b505050565b60606000610a8883610d5a565b905060008167ffffffffffffffff811115610acc577f4e487b7100000000000000000000000000000000000000000000000000000000600052604160045260246000fd5b604051908082528060200260200182016040528015610afa5781602001602082028036833780820191505090505b50905060005b82811015610b6a57610b1285826109b6565b828281518110610b4b577f4e487b7100000000000000000000000000000000000000000000000000000000600052603260045260246000fd5b6020026020010181815250508080610b6290613d01565b915050610b00565b508092505050919050565b6000610b7f610949565b8210610bc0576040517f08c379a0000000000000000000000000000000000000000000000000000000008152600401610bb7906139a7565b60405180910390fd5b60088281548110610bfa577f4e487b7100000000000000000000000000000000000000000000000000000000600052603260045260246000fd5b90600052602060002001549050919050565b610c146117ab565b73ffffffffffffffffffffffffffffffffffffffff16610c32610e9a565b73ffffffffffffffffffffffffffffffffffffffff1614610c88576040517f08c379a0000000000000000000000000000000000000000000000000000000008152600401610c7f906138c7565b60405180910390fd5b80600d9080519060200190610c9e929190612809565b5050565b600b5481565b6000806002600084815260200190815260200160002060009054906101000a900473ffffffffffffffffffffffffffffffffffffffff169050600073ffffffffffffffffffffffffffffffffffffffff168173ffffffffffffffffffffffffffffffffffffffff161415610d51576040517f08c379a0000000000000000000000000000000000000000000000000000000008152600401610d4890613847565b60405180910390fd5b80915050919050565b60008073ffffffffffffffffffffffffffffffffffffffff168273ffffffffffffffffffffffffffffffffffffffff161415610dcb576040517f08c379a0000000000000000000000000000000000000000000000000000000008152600401610dc290613827565b60405180910390fd5b600360008373ffffffffffffffffffffffffffffffffffffffff1673ffffffffffffffffffffffffffffffffffffffff168152602001908152602001600020549050919050565b610e1a6117ab565b73ffffffffffffffffffffffffffffffffffffffff16610e38610e9a565b73ffffffffffffffffffffffffffffffffffffffff1614610e8e576040517f08c379a0000000000000000000000000000000000000000000000000000000008152600401610e85906138c7565b60405180910390fd5b610e986000611ba6565b565b6000600a60009054906101000a900473ffffffffffffffffffffffffffffffffffffffff16905090565b606060018054610ed390613ccf565b80601f0160208091040260200160405190810160405280929190818152602001828054610eff90613ccf565b8015610f4c5780601f10610f2157610100808354040283529160200191610f4c565b820191906000526020600020905b815481529060010190602001808311610f2f57829003601f168201915b5050505050905090565b67016345785d8a000081565b600b54610f6d610949565b10610fad576040517f08c379a0000000000000000000000000000000000000000000000000000000008152600401610fa490613787565b60405180910390fd5b60008111610ff0576040517f08c379a0000000000000000000000000000000000000000000000000000000008152600401610fe7906136e7565b60405180910390fd5b6005811115611034576040517f08c379a000000000000000000000000000000000000000000000000000000000815260040161102b906138a7565b60405180910390fd5b600b5481611040610949565b61104a9190613b04565b111561108b576040517f08c379a000000000000000000000000000000000000000000000000000000000815260040161108290613947565b60405180910390fd5b60006110a88267016345785d8a0000611c6c90919063ffffffff16565b9050803410156110ed576040517f08c379a00000000000000000000000000000000000000000000000000000000081526004016110e490613927565b60405180910390fd5b60005b8281101561111c5761110933611104610949565b611c82565b808061111490613d01565b9150506110f0565b50600e60009054906101000a900473ffffffffffffffffffffffffffffffffffffffff1673ffffffffffffffffffffffffffffffffffffffff166108fc829081150290604051600060405180830381858888f19350505050158015611185573d6000803e3d6000fd5b505050565b6111926117ab565b73ffffffffffffffffffffffffffffffffffffffff168273ffffffffffffffffffffffffffffffffffffffff161415611200576040517f08c379a00000000000000000000000000000000000000000000000000000000081526004016111f7906137c7565b60405180910390fd5b806005600061120d6117ab565b73ffffffffffffffffffffffffffffffffffffffff1673ffffffffffffffffffffffffffffffffffffffff16815260200190815260200160002060008473ffffffffffffffffffffffffffffffffffffffff1673ffffffffffffffffffffffffffffffffffffffff16815260200190815260200160002060006101000a81548160ff0219169083151502179055508173ffffffffffffffffffffffffffffffffffffffff166112ba6117ab565b73ffffffffffffffffffffffffffffffffffffffff167f17307eab39ab6107e8899845ad3d59bd9653f200f220920489ca2b5937696c31836040516112ff91906136aa565b60405180910390a35050565b61131c6113166117ab565b8361186c565b61135b576040517f08c379a000000000000000000000000000000000000000000000000000000000815260040161135290613987565b60405180910390fd5b61136784848484611ca0565b50505050565b600c805461137a90613ccf565b80601f01602080910402602001604051908101604052809291908181526020018280546113a690613ccf565b80156113f35780601f106113c8576101008083540402835291602001916113f3565b820191906000526020600020905b8154815290600101906020018083116113d657829003601f168201915b505050505081565b60606114068261173f565b611445576040517f08c379a000000000000000000000000000000000000000000000000000000000815260040161143c90613907565b60405180910390fd5b600061144f611cfc565b9050600081511161146f57604051806020016040528060008152506114a9565b806114856001856114809190613b04565b611d8e565b600c604051602001611499939291906135f0565b6040516020818303038152906040525b915050919050565b60606040518060600160405280602d8152602001613ea5602d9139905090565b6000600560008473ffffffffffffffffffffffffffffffffffffffff1673ffffffffffffffffffffffffffffffffffffffff16815260200190815260200160002060008373ffffffffffffffffffffffffffffffffffffffff1673ffffffffffffffffffffffffffffffffffffffff16815260200190815260200160002060009054906101000a900460ff16905092915050565b61156d6117ab565b73ffffffffffffffffffffffffffffffffffffffff1661158b610e9a565b73ffffffffffffffffffffffffffffffffffffffff16146115e1576040517f08c379a00000000000000000000000000000000000000000000000000000000081526004016115d8906138c7565b60405180910390fd5b600073ffffffffffffffffffffffffffffffffffffffff168173ffffffffffffffffffffffffffffffffffffffff161415611651576040517f08c379a000000000000000000000000000000000000000000000000000000000815260040161164890613747565b60405180910390fd5b61165a81611ba6565b50565b60007f80ac58cd000000000000000000000000000000000000000000000000000000007bffffffffffffffffffffffffffffffffffffffffffffffffffffffff1916827bffffffffffffffffffffffffffffffffffffffffffffffffffffffff1916148061172857507f5b5e139f000000000000000000000000000000000000000000000000000000007bffffffffffffffffffffffffffffffffffffffffffffffffffffffff1916827bffffffffffffffffffffffffffffffffffffffffffffffffffffffff1916145b80611738575061173782611f3b565b5b9050919050565b60008073ffffffffffffffffffffffffffffffffffffffff166002600084815260200190815260200160002060009054906101000a900473ffffffffffffffffffffffffffffffffffffffff1673ffffffffffffffffffffffffffffffffffffffff1614159050919050565b600033905090565b816004600083815260200190815260200160002060006101000a81548173ffffffffffffffffffffffffffffffffffffffff021916908373ffffffffffffffffffffffffffffffffffffffff160217905550808273ffffffffffffffffffffffffffffffffffffffff1661182683610ca8565b73ffffffffffffffffffffffffffffffffffffffff167f8c5be1e5ebec7d5bd14f71427d1e84f3dd0314c0f7b2291e5b200ac8c7c3b92560405160405180910390a45050565b60006118778261173f565b6118b6576040517f08c379a00000000000000000000000000000000000000000000000000000000081526004016118ad906137e7565b60405180910390fd5b60006118c183610ca8565b90508073ffffffffffffffffffffffffffffffffffffffff168473ffffffffffffffffffffffffffffffffffffffff16148061193057508373ffffffffffffffffffffffffffffffffffffffff16611918846107ac565b73ffffffffffffffffffffffffffffffffffffffff16145b80611941575061194081856114d1565b5b91505092915050565b8273ffffffffffffffffffffffffffffffffffffffff1661196a82610ca8565b73ffffffffffffffffffffffffffffffffffffffff16146119c0576040517f08c379a00000000000000000000000000000000000000000000000000000000081526004016119b7906138e7565b60405180910390fd5b600073ffffffffffffffffffffffffffffffffffffffff168273ffffffffffffffffffffffffffffffffffffffff161415611a30576040517f08c379a0000000000000000000000000000000000000000000000000000000008152600401611a27906137a7565b60405180910390fd5b611a3b838383611fa5565b611a466000826117b3565b6001600360008573ffffffffffffffffffffffffffffffffffffffff1673ffffffffffffffffffffffffffffffffffffffff1681526020019081526020016000206000828254611a969190613be5565b925050819055506001600360008473ffffffffffffffffffffffffffffffffffffffff1673ffffffffffffffffffffffffffffffffffffffff1681526020019081526020016000206000828254611aed9190613b04565b92505081905550816002600083815260200190815260200160002060006101000a81548173ffffffffffffffffffffffffffffffffffffffff021916908373ffffffffffffffffffffffffffffffffffffffff160217905550808273ffffffffffffffffffffffffffffffffffffffff168473ffffffffffffffffffffffffffffffffffffffff167fddf252ad1be2c89b69c2b068fc378daa952ba7f163c4a11628f55a4df523b3ef60405160405180910390a4505050565b6000600a60009054906101000a900473ffffffffffffffffffffffffffffffffffffffff16905081600a60006101000a81548173ffffffffffffffffffffffffffffffffffffffff021916908373ffffffffffffffffffffffffffffffffffffffff1602179055508173ffffffffffffffffffffffffffffffffffffffff168173ffffffffffffffffffffffffffffffffffffffff167f8be0079c531659141344cd1fd0a4f28419497f9722a3daafe3b4186f6b6457e060405160405180910390a35050565b60008183611c7a9190613b8b565b905092915050565b611c9c8282604051806020016040528060008152506120b9565b5050565b611cab84848461194a565b611cb784848484612114565b611cf6576040517f08c379a0000000000000000000000000000000000000000000000000000000008152600401611ced90613727565b60405180910390fd5b50505050565b6060600d8054611d0b90613ccf565b80601f0160208091040260200160405190810160405280929190818152602001828054611d3790613ccf565b8015611d845780601f10611d5957610100808354040283529160200191611d84565b820191906000526020600020905b815481529060010190602001808311611d6757829003601f168201915b5050505050905090565b60606000821415611dd6576040518060400160405280600181526020017f30000000000000000000000000000000000000000000000000000000000000008152509050611f36565b600082905060005b60008214611e08578080611df190613d01565b915050600a82611e019190613b5a565b9150611dde565b60008167ffffffffffffffff811115611e4a577f4e487b7100000000000000000000000000000000000000000000000000000000600052604160045260246000fd5b6040519080825280601f01601f191660200182016040528015611e7c5781602001600182028036833780820191505090505b5090505b60008514611f2f57600182611e959190613be5565b9150600a85611ea49190613d4a565b6030611eb09190613b04565b60f81b818381518110611eec577f4e487b7100000000000000000000000000000000000000000000000000000000600052603260045260246000fd5b60200101907effffffffffffffffffffffffffffffffffffffffffffffffffffffffffffff1916908160001a905350600a85611f289190613b5a565b9450611e80565b8093505050505b919050565b60007f01ffc9a7000000000000000000000000000000000000000000000000000000007bffffffffffffffffffffffffffffffffffffffffffffffffffffffff1916827bffffffffffffffffffffffffffffffffffffffffffffffffffffffff1916149050919050565b611fb08383836122ab565b600073ffffffffffffffffffffffffffffffffffffffff168373ffffffffffffffffffffffffffffffffffffffff161415611ff357611fee816122b0565b612032565b8173ffffffffffffffffffffffffffffffffffffffff168373ffffffffffffffffffffffffffffffffffffffff16146120315761203083826122f9565b5b5b600073ffffffffffffffffffffffffffffffffffffffff168273ffffffffffffffffffffffffffffffffffffffff1614156120755761207081612466565b6120b4565b8273ffffffffffffffffffffffffffffffffffffffff168273ffffffffffffffffffffffffffffffffffffffff16146120b3576120b282826125a9565b5b5b505050565b6120c38383612628565b6120d06000848484612114565b61210f576040517f08c379a000000000000000000000000000000000000000000000000000000000815260040161210690613727565b60405180910390fd5b505050565b60006121358473ffffffffffffffffffffffffffffffffffffffff166127f6565b1561229e578373ffffffffffffffffffffffffffffffffffffffff1663150b7a0261215e6117ab565b8786866040518563ffffffff1660e01b8152600401612180949392919061363c565b602060405180830381600087803b15801561219a57600080fd5b505af19250505080156121cb57506040513d601f19601f820116820180604052508101906121c89190612bb5565b60015b61224e573d80600081146121fb576040519150601f19603f3d011682016040523d82523d6000602084013e612200565b606091505b50600081511415612246576040517f08c379a000000000000000000000000000000000000000000000000000000000815260040161223d90613727565b60405180910390fd5b805181602001fd5b63150b7a0260e01b7bffffffffffffffffffffffffffffffffffffffffffffffffffffffff1916817bffffffffffffffffffffffffffffffffffffffffffffffffffffffff1916149150506122a3565b600190505b949350505050565b505050565b6008805490506009600083815260200190815260200160002081905550600881908060018154018082558091505060019003906000526020600020016000909190919091505550565b6000600161230684610d5a565b6123109190613be5565b90506000600760008481526020019081526020016000205490508181146123f5576000600660008673ffffffffffffffffffffffffffffffffffffffff1673ffffffffffffffffffffffffffffffffffffffff168152602001908152602001600020600084815260200190815260200160002054905080600660008773ffffffffffffffffffffffffffffffffffffffff1673ffffffffffffffffffffffffffffffffffffffff168152602001908152602001600020600084815260200190815260200160002081905550816007600083815260200190815260200160002081905550505b6007600084815260200190815260200160002060009055600660008573ffffffffffffffffffffffffffffffffffffffff1673ffffffffffffffffffffffffffffffffffffffff16815260200190815260200160002060008381526020019081526020016000206000905550505050565b6000600160088054905061247a9190613be5565b90506000600960008481526020019081526020016000205490506000600883815481106124d0577f4e487b7100000000000000000000000000000000000000000000000000000000600052603260045260246000fd5b906000526020600020015490508060088381548110612518577f4e487b7100000000000000000000000000000000000000000000000000000000600052603260045260246000fd5b90600052602060002001819055508160096000838152602001908152602001600020819055506009600085815260200190815260200160002060009055600880548061258d577f4e487b7100000000000000000000000000000000000000000000000000000000600052603160045260246000fd5b6001900381819060005260206000200160009055905550505050565b60006125b483610d5a565b905081600660008573ffffffffffffffffffffffffffffffffffffffff1673ffffffffffffffffffffffffffffffffffffffff168152602001908152602001600020600083815260200190815260200160002081905550806007600084815260200190815260200160002081905550505050565b600073ffffffffffffffffffffffffffffffffffffffff168273ffffffffffffffffffffffffffffffffffffffff161415612698576040517f08c379a000000000000000000000000000000000000000000000000000000000815260040161268f90613867565b60405180910390fd5b6126a18161173f565b156126e1576040517f08c379a00000000000000000000000000000000000000000000000000000000081526004016126d890613767565b60405180910390fd5b6126ed60008383611fa5565b6001600360008473ffffffffffffffffffffffffffffffffffffffff1673ffffffffffffffffffffffffffffffffffffffff168152602001908152602001600020600082825461273d9190613b04565b92505081905550816002600083815260200190815260200160002060006101000a81548173ffffffffffffffffffffffffffffffffffffffff021916908373ffffffffffffffffffffffffffffffffffffffff160217905550808273ffffffffffffffffffffffffffffffffffffffff16600073ffffffffffffffffffffffffffffffffffffffff167fddf252ad1be2c89b69c2b068fc378daa952ba7f163c4a11628f55a4df523b3ef60405160405180910390a45050565b600080823b905060008111915050919050565b82805461281590613ccf565b90600052602060002090601f016020900481019282612837576000855561287e565b82601f1061285057805160ff191683800117855561287e565b8280016001018555821561287e579182015b8281111561287d578251825591602001919060010190612862565b5b50905061288b919061288f565b5090565b5b808211156128a8576000816000905550600101612890565b5090565b60006128bf6128ba84613a13565b6139e2565b9050828152602081018484840111156128d757600080fd5b6128e2848285613c8d565b509392505050565b60006128fd6128f884613a43565b6139e2565b90508281526020810184848401111561291557600080fd5b612920848285613c8d565b509392505050565b60008135905061293781613e48565b92915050565b60008135905061294c81613e5f565b92915050565b60008135905061296181613e76565b92915050565b60008151905061297681613e76565b92915050565b600082601f83011261298d57600080fd5b813561299d8482602086016128ac565b91505092915050565b600082601f8301126129b757600080fd5b81356129c78482602086016128ea565b91505092915050565b6000813590506129df81613e8d565b92915050565b6000602082840312156129f757600080fd5b6000612a0584828501612928565b91505092915050565b60008060408385031215612a2157600080fd5b6000612a2f85828601612928565b9250506020612a4085828601612928565b9150509250929050565b600080600060608486031215612a5f57600080fd5b6000612a6d86828701612928565b9350506020612a7e86828701612928565b9250506040612a8f868287016129d0565b9150509250925092565b60008060008060808587031215612aaf57600080fd5b6000612abd87828801612928565b9450506020612ace87828801612928565b9350506040612adf878288016129d0565b925050606085013567ffffffffffffffff811115612afc57600080fd5b612b088782880161297c565b91505092959194509250565b60008060408385031215612b2757600080fd5b6000612b3585828601612928565b9250506020612b468582860161293d565b9150509250929050565b60008060408385031215612b6357600080fd5b6000612b7185828601612928565b9250506020612b82858286016129d0565b9150509250929050565b600060208284031215612b9e57600080fd5b6000612bac84828501612952565b91505092915050565b600060208284031215612bc757600080fd5b6000612bd584828501612967565b91505092915050565b600060208284031215612bf057600080fd5b600082013567ffffffffffffffff811115612c0a57600080fd5b612c16848285016129a6565b91505092915050565b600060208284031215612c3157600080fd5b6000612c3f848285016129d0565b91505092915050565b6000612c5483836135d2565b60208301905092915050565b612c6981613c19565b82525050565b6000612c7a82613a98565b612c848185613ac6565b9350612c8f83613a73565b8060005b83811015612cc0578151612ca78882612c48565b9750612cb283613ab9565b925050600181019050612c93565b5085935050505092915050565b612cd681613c2b565b82525050565b6000612ce782613aa3565b612cf18185613ad7565b9350612d01818560208601613c9c565b612d0a81613e37565b840191505092915050565b6000612d2082613aae565b612d2a8185613ae8565b9350612d3a818560208601613c9c565b612d4381613e37565b840191505092915050565b6000612d5982613aae565b612d638185613af9565b9350612d73818560208601613c9c565b80840191505092915050565b60008154612d8c81613ccf565b612d968186613af9565b94506001821660008114612db15760018114612dc257612df5565b60ff19831686528186019350612df5565b612dcb85613a83565b60005b83811015612ded57815481890152600182019150602081019050612dce565b838801955050505b50505092915050565b6000612e0b601783613ae8565b91507f596f752063616e2774206d696e74203020746f6b656e730000000000000000006000830152602082019050919050565b6000612e4b602b83613ae8565b91507f455243373231456e756d657261626c653a206f776e657220696e646578206f7560008301527f74206f6620626f756e64730000000000000000000000000000000000000000006020830152604082019050919050565b6000612eb1603283613ae8565b91507f4552433732313a207472616e7366657220746f206e6f6e20455243373231526560008301527f63656976657220696d706c656d656e74657200000000000000000000000000006020830152604082019050919050565b6000612f17602683613ae8565b91507f4f776e61626c653a206e6577206f776e657220697320746865207a65726f206160008301527f64647265737300000000000000000000000000000000000000000000000000006020830152604082019050919050565b6000612f7d601c83613ae8565b91507f4552433732313a20746f6b656e20616c7265616479206d696e746564000000006000830152602082019050919050565b6000612fbd600e83613ae8565b91507f53616c652068617320656e6465640000000000000000000000000000000000006000830152602082019050919050565b6000612ffd602483613ae8565b91507f4552433732313a207472616e7366657220746f20746865207a65726f2061646460008301527f72657373000000000000000000000000000000000000000000000000000000006020830152604082019050919050565b6000613063601983613ae8565b91507f4552433732313a20617070726f766520746f2063616c6c6572000000000000006000830152602082019050919050565b60006130a3602c83613ae8565b91507f4552433732313a206f70657261746f7220717565727920666f72206e6f6e657860008301527f697374656e7420746f6b656e00000000000000000000000000000000000000006020830152604082019050919050565b6000613109603883613ae8565b91507f4552433732313a20617070726f76652063616c6c6572206973206e6f74206f7760008301527f6e6572206e6f7220617070726f76656420666f7220616c6c00000000000000006020830152604082019050919050565b600061316f602a83613ae8565b91507f4552433732313a2062616c616e636520717565727920666f7220746865207a6560008301527f726f2061646472657373000000000000000000000000000000000000000000006020830152604082019050919050565b60006131d5602983613ae8565b91507f4552433732313a206f776e657220717565727920666f72206e6f6e657869737460008301527f656e7420746f6b656e00000000000000000000000000000000000000000000006020830152604082019050919050565b600061323b602083613ae8565b91507f4552433732313a206d696e7420746f20746865207a65726f20616464726573736000830152602082019050919050565b600061327b602c83613ae8565b91507f4552433732313a20617070726f76656420717565727920666f72206e6f6e657860008301527f697374656e7420746f6b656e00000000000000000000000000000000000000006020830152604082019050919050565b60006132e1600983613ae8565b91507f45786365656473203500000000000000000000000000000000000000000000006000830152602082019050919050565b6000613321602083613ae8565b91507f4f776e61626c653a2063616c6c6572206973206e6f7420746865206f776e65726000830152602082019050919050565b6000613361602983613ae8565b91507f4552433732313a207472616e73666572206f6620746f6b656e2074686174206960008301527f73206e6f74206f776e00000000000000000000000000000000000000000000006020830152604082019050919050565b60006133c7602f83613ae8565b91507f4552433732314d657461646174613a2055524920717565727920666f72206e6f60008301527f6e6578697374656e7420746f6b656e00000000000000000000000000000000006020830152604082019050919050565b600061342d601183613ae8565b91507f56616c75652062656c6f772070726963650000000000000000000000000000006000830152602082019050919050565b600061346d601583613ae8565b91507f4e6f7420656e6f75676820746f6b656e206c65667400000000000000000000006000830152602082019050919050565b60006134ad602183613ae8565b91507f4552433732313a20617070726f76616c20746f2063757272656e74206f776e6560008301527f72000000000000000000000000000000000000000000000000000000000000006020830152604082019050919050565b6000613513603183613ae8565b91507f4552433732313a207472616e736665722063616c6c6572206973206e6f74206f60008301527f776e6572206e6f7220617070726f7665640000000000000000000000000000006020830152604082019050919050565b6000613579602c83613ae8565b91507f455243373231456e756d657261626c653a20676c6f62616c20696e646578206f60008301527f7574206f6620626f756e647300000000000000000000000000000000000000006020830152604082019050919050565b6135db81613c83565b82525050565b6135ea81613c83565b82525050565b60006135fc8286612d4e565b91506136088285612d4e565b91506136148284612d7f565b9150819050949350505050565b60006020820190506136366000830184612c60565b92915050565b60006080820190506136516000830187612c60565b61365e6020830186612c60565b61366b60408301856135e1565b818103606083015261367d8184612cdc565b905095945050505050565b600060208201905081810360008301526136a28184612c6f565b905092915050565b60006020820190506136bf6000830184612ccd565b92915050565b600060208201905081810360008301526136df8184612d15565b905092915050565b6000602082019050818103600083015261370081612dfe565b9050919050565b6000602082019050818103600083015261372081612e3e565b9050919050565b6000602082019050818103600083015261374081612ea4565b9050919050565b6000602082019050818103600083015261376081612f0a565b9050919050565b6000602082019050818103600083015261378081612f70565b9050919050565b600060208201905081810360008301526137a081612fb0565b9050919050565b600060208201905081810360008301526137c081612ff0565b9050919050565b600060208201905081810360008301526137e081613056565b9050919050565b6000602082019050818103600083015261380081613096565b9050919050565b60006020820190508181036000830152613820816130fc565b9050919050565b6000602082019050818103600083015261384081613162565b9050919050565b60006020820190508181036000830152613860816131c8565b9050919050565b600060208201905081810360008301526138808161322e565b9050919050565b600060208201905081810360008301526138a08161326e565b9050919050565b600060208201905081810360008301526138c0816132d4565b9050919050565b600060208201905081810360008301526138e081613314565b9050919050565b6000602082019050818103600083015261390081613354565b9050919050565b60006020820190508181036000830152613920816133ba565b9050919050565b6000602082019050818103600083015261394081613420565b9050919050565b6000602082019050818103600083015261396081613460565b9050919050565b60006020820190508181036000830152613980816134a0565b9050919050565b600060208201905081810360008301526139a081613506565b9050919050565b600060208201905081810360008301526139c08161356c565b9050919050565b60006020820190506139dc60008301846135e1565b92915050565b6000604051905081810181811067ffffffffffffffff82111715613a0957613a08613e08565b5b8060405250919050565b600067ffffffffffffffff821115613a2e57613a2d613e08565b5b601f19601f8301169050602081019050919050565b600067ffffffffffffffff821115613a5e57613a5d613e08565b5b601f19601f8301169050602081019050919050565b6000819050602082019050919050565b60008190508160005260206000209050919050565b600081519050919050565b600081519050919050565b600081519050919050565b6000602082019050919050565b600082825260208201905092915050565b600082825260208201905092915050565b600082825260208201905092915050565b600081905092915050565b6000613b0f82613c83565b9150613b1a83613c83565b9250827fffffffffffffffffffffffffffffffffffffffffffffffffffffffffffffffff03821115613b4f57613b4e613d7b565b5b828201905092915050565b6000613b6582613c83565b9150613b7083613c83565b925082613b8057613b7f613daa565b5b828204905092915050565b6000613b9682613c83565b9150613ba183613c83565b9250817fffffffffffffffffffffffffffffffffffffffffffffffffffffffffffffffff0483118215151615613bda57613bd9613d7b565b5b828202905092915050565b6000613bf082613c83565b9150613bfb83613c83565b925082821015613c0e57613c0d613d7b565b5b828203905092915050565b6000613c2482613c63565b9050919050565b60008115159050919050565b60007fffffffff0000000000000000000000000000000000000000000000000000000082169050919050565b600073ffffffffffffffffffffffffffffffffffffffff82169050919050565b6000819050919050565b82818337600083830152505050565b60005b83811015613cba578082015181840152602081019050613c9f565b83811115613cc9576000848401525b50505050565b60006002820490506001821680613ce757607f821691505b60208210811415613cfb57613cfa613dd9565b5b50919050565b6000613d0c82613c83565b91507fffffffffffffffffffffffffffffffffffffffffffffffffffffffffffffffff821415613d3f57613d3e613d7b565b5b600182019050919050565b6000613d5582613c83565b9150613d6083613c83565b925082613d7057613d6f613daa565b5b828206905092915050565b7f4e487b7100000000000000000000000000000000000000000000000000000000600052601160045260246000fd5b7f4e487b7100000000000000000000000000000000000000000000000000000000600052601260045260246000fd5b7f4e487b7100000000000000000000000000000000000000000000000000000000600052602260045260246000fd5b7f4e487b7100000000000000000000000000000000000000000000000000000000600052604160045260246000fd5b6000601f19601f8301169050919050565b613e5181613c19565b8114613e5c57600080fd5b50565b613e6881613c2b565b8114613e7357600080fd5b50565b613e7f81613c37565b8114613e8a57600080fd5b50565b613e9681613c83565b8114613ea157600080fd5b5056fe68747470733a2f2f7777772e626f78696e67626f797a2e636f6d2f636f6e74726163742d696e666f2e6a736f6ea264697066735822122054e04796f795f8da9f7cae9f87f691026915823cb5438aa916697cf5928e175964736f6c63430008000033",
  "immutableReferences": {},
  "source": "// SPDX-License-Identifier: MIT\r\npragma solidity ^0.8.0;\r\n\r\nimport \"@openzeppelin/contracts/token/ERC721/extensions/ERC721Enumerable.sol\";\r\nimport \"@openzeppelin/contracts/access/Ownable.sol\";\r\nimport \"@openzeppelin/contracts/utils/math/SafeMath.sol\";\r\nimport \"@openzeppelin/contracts/utils/Strings.sol\";\r\n\r\ncontract DirtyWorld is ERC721Enumerable, Ownable {\r\n    using SafeMath for uint256;\r\n    using Strings for uint256;\r\n\r\n    uint256 public availableToken = 11111;\r\n    uint256 public constant price = 0.1 ether;\r\n    uint256 public constant maxPurchaseSize = 5;\r\n    string public baseExtension = \".json\";\r\n\r\n    string _baseTokenURI;\r\n    address contractOwner;\r\n\r\n    constructor(\r\n        string memory theBaseURI,\r\n        address owner,\r\n        uint256 numToken\r\n    ) ERC721(\"DirtyWorld\", \"DIRTYWORLD\") {\r\n        setBaseURI(theBaseURI);\r\n        contractOwner = owner;\r\n        availableToken = numToken;\r\n    }\r\n\r\n    modifier saleIsOpen() {\r\n        require(totalSupply() < availableToken, \"Sale has ended\");\r\n        _;\r\n    }\r\n\r\n    function mint(uint256 _count) public payable saleIsOpen {\r\n        require(_count > 0, \"You can't mint 0 tokens\");\r\n        require(_count <= maxPurchaseSize, \"Exceeds 5\");\r\n        require(\r\n            totalSupply() + _count <= availableToken,\r\n            \"Not enough token left\"\r\n        );\r\n\r\n        uint256 orderPrice = price.mul(_count);\r\n        require(msg.value >= orderPrice, \"Value below price\");\r\n\r\n        for (uint256 i = 0; i < _count; i++) {\r\n            _safeMint(msg.sender, totalSupply()); //Enumerable\r\n        }\r\n\r\n        payable(contractOwner).transfer(orderPrice);\r\n    }\r\n\r\n    function setBaseURI(string memory baseURI) public onlyOwner {\r\n        _baseTokenURI = baseURI;\r\n    }\r\n\r\n    function _baseURI() internal view virtual override returns (string memory) {\r\n        return _baseTokenURI;\r\n    }\r\n\r\n    function contractURI() public pure returns (string memory) {\r\n        return \"https://www.boxingboyz.com/contract-info.json\";\r\n    }\r\n\r\n    function tokenURI(uint256 tokenId)\r\n        public\r\n        view\r\n        virtual\r\n        override\r\n        returns (string memory)\r\n    {\r\n        require(\r\n            _exists(tokenId),\r\n            \"ERC721Metadata: URI query for nonexistent token\"\r\n        );\r\n\r\n        string memory currentBaseURI = _baseURI();\r\n        return\r\n            bytes(currentBaseURI).length > 0\r\n                ? string(\r\n                    abi.encodePacked(\r\n                        currentBaseURI,\r\n                        (tokenId + 1).toString(),\r\n                        baseExtension\r\n                    )\r\n                )\r\n                : \"\";\r\n    }\r\n\r\n    function walletOfOwner(address _owner)\r\n        external\r\n        view\r\n        returns (uint256[] memory)\r\n    {\r\n        uint256 tokenCount = balanceOf(_owner);\r\n\r\n        uint256[] memory tokensId = new uint256[](tokenCount);\r\n        for (uint256 i = 0; i < tokenCount; i++) {\r\n            tokensId[i] = tokenOfOwnerByIndex(_owner, i);\r\n        }\r\n\r\n        return tokensId;\r\n    }\r\n}\r\n",
  "sourcePath": "D:\\werk\\coding\\NoLimit\\NoLimit Portal\\DirtyBoyz\\nft\\contracts\\DirtyWorld.sol",
  "compiler": {
    "name": "solc",
    "version": "0.8.0+commit.c7dfd78e.Emscripten.clang"
  },
  "schemaVersion": "3.4.3",
  "updatedAt": "2021-11-06T12:59:35.002Z",
  "devdoc": {
    "kind": "dev",
    "methods": {
      "approve(address,uint256)": {
        "details": "See {IERC721-approve}."
      },
      "balanceOf(address)": {
        "details": "See {IERC721-balanceOf}."
      },
      "getApproved(uint256)": {
        "details": "See {IERC721-getApproved}."
      },
      "isApprovedForAll(address,address)": {
        "details": "See {IERC721-isApprovedForAll}."
      },
      "name()": {
        "details": "See {IERC721Metadata-name}."
      },
      "owner()": {
        "details": "Returns the address of the current owner."
      },
      "ownerOf(uint256)": {
        "details": "See {IERC721-ownerOf}."
      },
      "renounceOwnership()": {
        "details": "Leaves the contract without owner. It will not be possible to call `onlyOwner` functions anymore. Can only be called by the current owner. NOTE: Renouncing ownership will leave the contract without an owner, thereby removing any functionality that is only available to the owner."
      },
      "safeTransferFrom(address,address,uint256)": {
        "details": "See {IERC721-safeTransferFrom}."
      },
      "safeTransferFrom(address,address,uint256,bytes)": {
        "details": "See {IERC721-safeTransferFrom}."
      },
      "setApprovalForAll(address,bool)": {
        "details": "See {IERC721-setApprovalForAll}."
      },
      "supportsInterface(bytes4)": {
        "details": "See {IERC165-supportsInterface}."
      },
      "symbol()": {
        "details": "See {IERC721Metadata-symbol}."
      },
      "tokenByIndex(uint256)": {
        "details": "See {IERC721Enumerable-tokenByIndex}."
      },
      "tokenOfOwnerByIndex(address,uint256)": {
        "details": "See {IERC721Enumerable-tokenOfOwnerByIndex}."
      },
      "tokenURI(uint256)": {
        "details": "See {IERC721Metadata-tokenURI}."
      },
      "totalSupply()": {
        "details": "See {IERC721Enumerable-totalSupply}."
      },
      "transferFrom(address,address,uint256)": {
        "details": "See {IERC721-transferFrom}."
      },
      "transferOwnership(address)": {
        "details": "Transfers ownership of the contract to a new account (`newOwner`). Can only be called by the current owner."
      }
    },
    "version": 1
  },
  "userdoc": {
    "kind": "user",
    "methods": {},
    "version": 1
  }
}